:020000040000FA
:04000000803114280F
:100008007E1480312E00161C0A280B2812280C1C7E
:100018000E280F28122880316A2080317E100900AE
:10002800803116287E102000803144282000960157
:1000380097019801F0309100FF309200FF30930053
:10004800FF303E00CE00FF30C300DF30B800E501CE
:10005800C401B901CF01BA01C501D001FF30BB000D
:10006800FF30C600FF30D100FF30BC00FF30C700B2
:10007800FF30D2000830E80005303D00900008004D
:1000880080317D2080318B170130F5000030F6007B
:100098007508200096005230F4002A30890B522847
:1000A800F40B52280130F5070030F63D7608803A07
:1000B800F40080307402031D63280A307502031CA3
:1000C800662867284C284828803114282E000C10F0
:1000D800803197208031200096010330F1008A306A
:1000E800F0005630890B7628F00B7628F10B76282D
:1000F80008008031AC20803180311A208031803175
:10010800A320803180318A20803108002E000C1015
:100118000B10B930F2000030F3008031B420803188
:100128002E00161408007708780403199C289D28C7
:10013800A22878088A0077080A008031080062300F
:1001480031008D008F019101023093009201080067
:100158002F0096019701980199019A019B010800C7
:0C0168007308F8007208F7000800080097
:020000040001F9
:0A000E00EC3FFF3F9F3FFF3FFF3F25
:00000001FF
