:020000040000FA
:08000000803102288731FD2F39
:100EC4002F0096019701980199019A019B0108004E
:100ED400623031008D008F01910102309300920144
:100EE400080087316227873187317D278731873131
:100EF4006A27873108002000960197019801F03095
:100F04009100FF309200FF309300FF303E00CE008E
:100F1400FF30C300DF30B800E501C401B901CF01DF
:100F2400BA01C501D001FF30BB00FF30C600FF305D
:100F3400D100FF30BC00FF30C700FF30D2000830C2
:100F4400E800080087317327873120001614043025
:100F5400F100CF30F0000230890BAE2FF00BAE2F32
:100F6400F10BAE2FF201F30103102000161C031441
:100F74000318BD2FC02F20001614C22F20001610F6
:100F8400A330F0005530890BC52FF00BC52F00009E
:100F94000130F2070030F33D7308803AF0008030EE
:100FA4007002031DD72F05307202031CDA2FDB2FCA
:100FB400B62F2000161096140230F100E730F0002E
:100FC4000030890BE32FF00BE32FF10BE32F0032FA
:100FD4002000961016150430F100CF30F0000230D6
:100FE400890BF22FF00BF22FF10BF22F20001611C8
:0C0FF400A72F8031022820008731A42F95
:020000040001F9
:0A000E00EC3FFF3F9F3FFF3FFF3F25
:00000001FF
