:020000040000FA
:08000000803102288731FD2F39
:100EB4002F0096019701980199019A019B0108005E
:100EC400623031008D008F01910102309300920154
:100ED400080087315A278731873175278731873151
:100EE4006227873108002000960197019801F030AD
:100EF4009100FF309200FF309300FF303E00CE009F
:100F0400FF30C300DF30B800E501C401B901CF01EF
:100F1400BA01C501D001FF30BB00FF30C600FF306D
:100F2400D100FF30BC00FF30C700FF30D2000830D2
:100F3400E800080087316B27873120008C1EA32F1F
:100F4400A42FA52F9F2F16140430F1002C30F0008D
:100F5400AC30890BAB2FF00BAB2FF10BAB2FF201A5
:100F6400F30103102000161C03140318BA2FBD2F1D
:100F740020001614BF2F20001610A330F0005530A7
:100F8400890BC22FF00BC22F00000130F207003092
:100F9400F33D7308803AF00080307002031DD42FB3
:100FA40005307202031CD72FD82FB32F2000161040
:100FB40096140230F1004530F000AA30890BE02F7E
:100FC400F00BE02FF10BE02F2000961016150430E3
:100FD400F1002C30F000AC30890BEE2FF00BEE2F2B
:100FE400F10BEE2F200016118C1EF92FFA2FA52FCE
:0C0FF4009F2F80310228200087319C2FA5
:020000040001F9
:0A000E00EC3FFF3F9F3FFF3FFF3F25
:00000001FF
