:020000040000FA
:08000000803102288731FD2F39
:100F0C002F0096019701980199019A019B01080005
:100F1C00623031008D008F019101023093009201FB
:100F2C0008008731862787318731A12787318731A0
:100F3C008E27873108002000960197019801F03028
:100F4C009100FF309200FF309300FF303E00CE0046
:100F5C00FF30C300DF30B800E501C401B901CF0197
:100F6C00BA01C501D001FF30BB00FF30C600FF3015
:100F7C00D100FF30BC00FF30C700FF30D20008307A
:100F8C00E8000800873197278731F101F201200032
:100F9C008C1AD12FD22FD72F0130F1070030F23D10
:100FAC00D82F00007208803AF00080307002031DC8
:100FBC00E12F073071020318E42FE52FF12F710890
:100FCC000F39200096002130F0007630890BEC2F81
:100FDC00F00BEC2F0032073071067204031DF72F53
:100FEC00F82FF92FCB2F0000CD2F803102282000B5
:040FFC008731C82F42
:020000040001F9
:0A000E00EC3FFF3F9F3FFF3FFF3F25
:00000001FF
