:020000040000FA
:04000000803114280F
:100008007E1480312E00161C0A280B2812280C1C7E
:100018000E280F28122880317D2080317E1009009B
:10002800803116288031C9208031F8007E102000E8
:1000380080311E2880318D2080318B17F401F50125
:100048000130F4070030F53D7508803AF300803040
:100058007302031D31280A30740203183428352826
:100068003A2874080F39200096003C28F401F5015D
:100078003130F300B230890B3F28F30B3F280032B0
:100088007808031D48284928242820009601780864
:1000980003194F2850284928222880311428200085
:1000A800960197019801F0309100FF309200FF30DF
:1000B8009300FF303E00CE00FF30C300DF30B800B1
:1000C800E501C401B901CF01BA01C501D001FF3072
:1000D800BB00FF30C600FF30D100FF30BC00FF304E
:1000E800C700FF30D2000830E80005303D0090001E
:1000F80008002E000C108031A72080317803031DE2
:1001080086288828013089280030F0007008F80017
:1001180008008031BC20803180315320803180310B
:10012800B320803180319A20803108002E000C10D5
:100138000B10CA30F1000030F2008031C420803149
:100148002E0016140800760877040319AC28AD2889
:10015800B22877088A0076080A00803108006230E1
:1001680031008D008F019101023093009201080047
:100178002F0096019701980199019A019B010800A7
:0E0188007208F7007108F60008000134080044
:020000040001F9
:0A000E00EC3FFF3F9F3FFF3FFF3F25
:00000001FF
