:020000040000FA
:08000000803102288731FD2F39
:100DFE00023087315527863108000130873155275B
:100E0E00873108002000971600002000971200007E
:100E1E0008002F0096019701980199019A019B01F4
:100E2E000800623031008D008F0191010230930075
:100E3E009201080087311027873187318D2787313E
:100E4E00873118278731080087312127873187316D
:100E5E00B42787318631FF2687310030F200883083
:100E6E00F30087313E2787313B2F803102284B2FED
:100E7E007208840073088500000887317127873156
:100E8E000130F2070030F33D7208840073088500CC
:100E9E001200031D532F542F3F2F0800F100200086
:100EAE0017127108F03998008731092787317108B8
:100EBE000F39F0000330F035FF3E031D622F703501
:100ECE0020009800873109278731A630890B6D2FB6
:100EDE0000320800F1002000980117167108F03951
:100EEE00980087310927873171080F39F0000330D8
:100EFE00F035FF3E031D7F2F70352000980087319F
:100F0E00092787310430890B8A2F080020009601AB
:100F1E0097019801FF309100FF309200FF3093004F
:100F2E00FF303E00CE00FF30C300FF30B800E501B9
:100F3E00C401B901CF01BA01C501D001FF30BB0018
:100F4E00FF30C600FF30D100FF30BC00FF30C700BD
:100F5E00FF30D2000830E800080020001212921272
:100F6E0093011712971298012730F200F530890B72
:100F7E00BE2FF20BBE2F0000303087315527873140
:100F8E00FA300032890BC82F303087315527873120
:100F9E000A30890BD02F32308731552787310A30EE
:100FAE00890BD72F28308731552787310530890B8C
:100FBE00DE2F08308731552787310530890BE52F15
:100FCE00873104278731C8300032890BEB2F06306A
:100FDE008731552787310530890BF32F0C30873138
:100FEE00552787310530890BFA2F080020008731ED
:100FFE002B2F4E346F3420347334653420347034D8
:10100E007534653464346534203467346F34723427
:06101E0064346F3400345D
:020000040001F9
:0A000E00EC3FFF3F9F3FFF3FFF3F25
:00000001FF
