:020000040000FA
:08000000803102288731FD2F39
:100F14002F0096019701980199019A019B010800FD
:100F2400623031008D008F019101023093009201F3
:100F3400080087318A2787318731A5278731873190
:100F44009227873108002000960197019801F0301C
:100F54009100FF309200FF309300FF303E00CE003E
:100F6400FF30C300DF30B800E501C401B901CF018F
:100F7400BA01C501D001FF30BB00FF30C600FF300D
:100F8400D100FF30BC00FF30C700FF30D200083072
:100F9400E800080087319B278731F201F301200024
:100FA4008C1AD52FD62FE52F0130F2070030F33DF0
:100FB400043072067304031DE02FE12FE62F96011F
:100FC400F201F301E62F00000130F000720AEB2F6A
:100FD400F035890BEA2F7008F1007108200096049F
:100FE4002130F0007630890BF52FF00BF52F00320D
:0C0FF400D12F8031022820008731CC2F43
:020000040001F9
:0A000E00EC3FFF3F9F3FFF3FFF3F25
:00000001FF
